{
  "contractName": "Fortune",
  "abi": [
    {
      "constant": false,
      "inputs": [
        {
          "internalType": "bytes32",
          "name": "_seed",
          "type": "bytes32"
        }
      ],
      "name": "rand",
      "outputs": [
        {
          "internalType": "bytes32",
          "name": "",
          "type": "bytes32"
        }
      ],
      "payable": false,
      "stateMutability": "nonpayable",
      "type": "function"
    },
    {
      "constant": true,
      "inputs": [],
      "name": "getRandom",
      "outputs": [
        {
          "internalType": "bytes32",
          "name": "",
          "type": "bytes32"
        }
      ],
      "payable": false,
      "stateMutability": "view",
      "type": "function"
    }
  ],
  "bytecode": "0x608060405234801561001057600080fd5b50610131806100206000396000f3fe6080604052348015600f57600080fd5b506004361060325760003560e01c8063aacc5a17146037578063f3be7626146053575b600080fd5b603d6092565b6040518082815260200191505060405180910390f35b607c60048036036020811015606757600080fd5b8101908080359060200190929190505050609b565b6040518082815260200191505060405180910390f35b60008054905090565b60008160405160200180828152602001807f616263000000000000000000000000000000000000000000000000000000000081525060030191505060405160208183030381529060405280519060200120600081905550600054905091905056fea265627a7a7231582080219bc968a92bd8915eaa790d1c33be1acb33e9b758cbe8e16699fe0487cb2064736f6c63430005100032",
  "source": "pragma solidity ^0.5.0;\n\ncontract Fortune {\n  bytes32 random;\n\n  function rand(bytes32 _seed) public returns (bytes32) {\n    random = keccak256(abi.encodePacked(_seed, \"abc\"));\n\n    return random;\n  }\n\n  function getRandom() public view returns (bytes32) {\n    return random;\n  }\n}",
  "sourcePath": "/Users/fukataryouta/fortune/contracts/fortune.sol",
  "compiler": {
    "name": "solc",
    "version": "0.5.16+commit.9c3226ce.Emscripten.clang"
  },
  "schemaVersion": "3.0.23",
  "updatedAt": "2020-03-26T07:29:00.493Z",
  "devdoc": {
    "methods": {}
  },
  "userdoc": {
    "methods": {}
  }
}